:10001E0053756E646179004D6F6E6461790054752D
:10002E006573646179005765646E65736461790008
:10003E0054687572736461790046726964617900FF
:10004E005361747572646179004D454E55002D2DC6
:10005E002D2D2D2D2D2D2D2D2D2D2D2D2D2D0053C9
:10006E00657420446174652654696D650041646A47
:10007E0075737420446973706C6179004578697486
:10008E000053455420444154452654494D450000E3
:10009E000001020302050409030C030F04130215E9
:1000AE0001160117031A021C021E011F0120012155
:1000BE00012202240327032A032D033002320234C5
:1000CE0002360238023A033D023F02410243034622
:1000DE000349034C065201530457045B035E03614C
:1000EE00036403670269036C026E04720375017682
:1000FE00047A027C0581028302850388028A048EBB
:10010E000290039303960399019A039D029F01A007
:10011E0001A102A302A501A602A802AA03AD03B083
:10012E0003B302B503B803BB01BC05C103C401C5CB
:10013E0002C702C902CB02CD03D003D302D504D924
:10014E0002DB03DE03E104E501E604EA02EC030050
:10015E0000000000FF0107001600CC01130202018F
:10016E00FF0004000C00CC0604000C00CC030803B6
:10017E001800CC0808031800CC050B0F0000CC06A5
:10018E00080F0000CC050E0A0801F905060A080141
:10019E009F050A002400CC0303060601FF09110681
:1001AE000601FF060A121E00CC0405080A017F0490
:1001BE000F080A0187040C10100160060E0F1202C0
:1001CE00CC0301020201FF0001080C0160040A08C1
:1001DE00140187000A08140178060A120000CC06E2
:1001EE000A0C1200CC060A0C1202CC060A120000EF
:1001FE00CC060A001200CC0313020201FF00130802
:10020E000C0160060A120000CC0113020201FF0667
:10021E000A121E00CC060A0C1401FF070A001E006B
:10022E00CC0502060600CC06060C0C017E06140C4C
:10023E001001060614120000CC060E0C0C01F80676
:10024E00000A10016006000F0000CC080A001E0014
:10025E00CC060E120000CC04070C1600CC060E0CB9
:10026E000C01FC0305030F00CC08000C0000CC06AB
:10027E000E0C0C01FF0505090F00CC060A121E001C
:10028E00CC0600120000CC060E0C0C01FF06040872
:10029E000801FF06060C0C01FF070F090F00CC0129
:1002AE000E020201FF0106020201FF030602020115
:1002BE00FF030E020201FF000E080C01600606127B
:1002CE000C00CC060E120C02CC0607120000CC0657
:1002DE000D120000CC0606120C02CC060E120C00FB
:1002EE00CC05060A0A017E050D0404019F051302C2
:1002FE000201FF030A060A01FF030A0E1401DF08BA
:10030E000A040401E1030A091E00CC090A091E02AF
:10031E00CC060C090000CC000A001E00CC04140C04
:10032E000000CC040A0C0000CC04000C0000CC0829
:10033E000F0A0A017808050A0A0178070A0E140145
:10034E00CF000A001E00CC0214060000CC020006EC
:10035E000000CC040A10140178000A001E00CC061E
:10036E0014120000CC040A0C0000CC06001200008F
:10037E00CC000A001E00CC040A0C0000CC060012B1
:10038E000000CC070A0E1401CF0B0F000900CC0998
:10039E000C060000CC000A001E00CC0C0A001E0049
:1003AE00CC060A120000CC020A001E00CC02140970
:1003BE000000CC0200090000CC0C07001600CC0691
:1003CE000E0C0C01E1000A001E00CC060F120F02EB
:1003DE00CC0605120F00CC000A001E00CC0614122B
:1003EE000000CC000A001E00CC0C0A001E00CC033C
:1003FE0005090F02CC0905090F00CC000A001E00EA
:10040E00CC0C0A001E00CC060A121E02CC060A0CE8
:10041E001401FF000A001E00CC040A0C0000CC04DC
:10042E00000C0000CC08050A0A0178060A0C14011B
:10043E00FF0A11060902CC000A001E00CC040A0CA9
:10044E000000CC04000C0000CC08050A0A01780953
:10045E000F090F02CC060F0C0A01F906050C0A0152
:10046E009F060A001E00CC0600120000CC000700FA
:10047E001600CC0C07001600CC060E0C0C01E10386
:10048E000A091E02CC090A091E00CC000A001E0031
:10049E00CC0C0A001E00CC030F090F00CC090F096B
:1004AE000F02CC060A121E02CC060A121E00CC0641
:1004BE000F000F00CC0305090F02CC0905090F0030
:1004CE00CC060A121E00CC0614120000CC06001236
:1004DE000000CC000A001E00CC0214060000CC0264
:1004EE0000060000CC060A121E02CC040A001E00F2
:1004FE00CC0214060000CC0200060000CC03070953
:10050E000900CC0907090902CC0614120000CC021E
:10051E0004060C02CC050E0A0C01FF0A0E00120096
:10052E00CC050E0A0C01FF000A001E00CC050E0AB7
:10053E000C01CF050E0A0C01FF0A0A001E00CC05A5
:10054E000E0A0C01DF050E0F0000CC070406080191
:10055E001E040A0C0000CC040C001800CC050E0A78
:10056E000C01FF0A0E001200CC05140A0C01E00467
:10057E000C0808011E000A001E00CC0810000C001A
:10058E00CC0104020201FF010E001200CC0604028F
:10059E000201FF060E001200CC0314060801E00053
:1005AE000A001E00CC040C0C0C00CC04110909022C
:1005BE00CC010A001E00CC000E001200CC040C0868
:1005CE0008011E0810000C00CC0C0C0808011E10AF
:1005DE0010000C00CC000E001200CC040C08080118
:1005EE001E0810000C00CC050E0A0C01FF050E0AA9
:1005FE000C01FF0011001800CC050E0A0C01FF0AB9
:10060E0011001800CC000E001200CC050E0A0C01D1
:10061E000E040B0806019F0411080601F9081008C4
:10062E0008018104080C0000CC040A001200CC085A
:10063E000E001200CC0410080801E1000C000C00A2
:10064E00CC020E061202CC060E061200CC020E06CC
:10065E001202CC060E061200CC0A0E061202CC0EA8
:10066E000E061200CC040E0C1202CC040E0C12005C
:10067E00CC020E061202CC060E061200CC01140697
:10068E0008016004140C0000CC04080C0000CC041B
:10069E000E0C1200CC080E080C0181000E08080189
:1006AE00180006080801600806080C0106010A0079
:1006BE002400CC000E080C0160080E080801060884
:1006CE0006080801810006080C011803080604013B
:1006DE001E0908060401E10305090F00CC060A12E3
:1006EE001E00CC090F090F00CC00000064000100B1
:1006FE00630003006300050063000600630008004A
:10070E0063000A0063000C0063000D0063000F001D
:10071E0062001100620013006200140061001600F6
:10072E00610018006100190060001B0060001D00D0
:10073E005F001E005F0020005E0022005D002300AF
:10074E005D0025005C0027005C0028005B002A008D
:10075E005A002B0059002D0059002E005800300071
:10076E005700320056003300550034005400360056
:10077E00530037005200390051003A0050003C003F
:10078E004F003D004E003E004D0040004C00410029
:10079E004B0042004A004400490045004700460015
:1007AE00460047004500490044004A0042004B0005
:1007BE0041004C0040004D003E004E003D004F00F9
:1007CE003C0050003A0051003900520037005300EF
:1007DE0036005400340055003300560031005700E7
:1007EE00300058002E0059002D0059002B005A00E1
:1007FE002A005B0028005C0027005C0025005D00DD
:10080E0023005D0022005E0020005F001E005F00DE
:10081E001D0060001B0060001900610018006100DF
:10082E0016006100140062001300620011006200E5
:10083E000F0063000D0063000C0063000A006300EC
:10084E0008006300060063000500630003006300F8
:0F085E0001006400003F065B4F666D7D077F6FF2
:1022DF008E07001E0025002C0034003E0047004EE4
:0322EF008100006B
:101D2500759608D2A6C2A77FF47E01122237E47801
:101D350021F208F27802F278047403F2E47823F2CF
:101D45001200031223161222F378167431F2538E01
:101D55003F7589D1758A7D758CF9C28D758BFF7537
:101D65008D7FD2A9D2ABD2AFD28CD28E121C8A1261
:101D750018A7EF04781CF2E27829F2D2A61221B155
:101D8500C2A67823E21460131460151460172403A7
:101D9500701C7802E2FF12209C80E7121BE880E2AB
:101DA50012086D80DD7802E2FF12212C80D4E478E0
:041DB50023F280CEC7
:101BE8007BFF7A007957E47832F20804F27D6012BC
:101BF800200D7BFF7A00795C78327418F208740142
:101C0800F2E4FD12200D7A00796D74301220027A08
:101C180000797B74481220027BFF7A00798A783237
:101C280074601220067802E275F018A42430FB785C
:101C3800377401F2E4FD7F3E12157A7821E26041A3
:101C4800D29730973CE4F27802E2146012146018DC
:101C58002402702478237402F278047406F222783D
:101C6800237403F27804F222E47823F27818E278F5
:101C780002F278047403F22278237401F2780404DF
:021C8800F22246
:101EC2007806E2781A6005E224D08003E2246CFBF3
:101ED200E43407FAEFFD6401601EED64036019ED5E
:101EE20064056014ED6407600FED6408600AED6438
:101EF2000A6005ED640C70037F1F22EFFD6404602D
:101F02000FED6406600AED64096005ED640B700371
:101F12007F1E22EB5403700EFC7D64AF03AE0212EF
:101F22001B5DED4C700F7C017D90AF03AE02121B66
:0A1F32005DED4C70037F1D227F1C43
:011F3C002282
:1018A7007806E2781A6005E224D08003E2246C7897
:1018B7002FF2E4340718F27819E2FF7830E4F208DF
:1018C700EFF27817E2FF7832E4F208EFF27830E2CD
:1018D700FE08E2FF64014E6006EF64024E70167860
:1018E7002FE224FFF218E234FFF27831E2240CF2FF
:1018F70018E23400F2782EE2FA08E2FB7C007D64FD
:10190700FFAE02121BB28F828E837C007D64121B96
:101917004BC3EB9FFFEA9EAB07FA7D04FE121BB297
:10192700EF2BFBEE3AFA7C007D04AF82AE83121BED
:10193700B2EF2BFDEE3AFCE58225E0FFE58333FEAF
:10194700C3ED9FFBEC9EFA7831E22401FF18E234E5
:1019570000FE7C007D1A121B4B7D0A121BB2EF2B77
:10196700FFEE3AFE7833E22FFF18E23ECF24FFCF97
:1019770034FFFEC3EE64809480500974072FFFE4A0
:0D1987003EFE80EF7C007D07121BB2AF0515
:011994002230
:101F3D00EF14602414602C14604814604F14605624
:101F4D002405705D780474C7F27806E2781A60058E
:101F5D00E224648049E280467804740BF27819E239
:101F6D0014803B7819E2FF121EC2EF14FE7804F2C2
:101F7D007817E2D39F40057802EEF2227817E2142B
:101F8D00801C78047417F2781DE280127804743B7B
:101F9D00F2781EE280087804743BF2781BE2780236
:011FAD00F241
:011FAE002210
:10086D007BFF7A00798FE47832F20804F27D18125A
:10087D00200D7BFF7A00795C78327418F2087401D0
:10088D00F2E4FD12200D7800E21470030209C20497
:10089D006003020B427802E2B407004003020964D0
:1008AD009008B4F82828730208C90208CC0208E69B
:1008BD0002090002091902093202094B0209647882
:1008CD00377401F27B387D807F5F12157A7837742B
:1008DD0001F27B387D9002099778377401F27B38ED
:1008ED007DB07F5F12157A78377401F27B387DC049
:1008FD0002099778377401F27B6E7D407F5F121588
:10090D007A78377401F27B6E7D50807E7837740172
:10091D00F27B6E7D707F5F12157A78377401F27BF2
:10092D006E7D80806578377401F27B6E7DA07F5F70
:10093D0012157A78377401F27B6E7DB0804C783762
:10094D007401F27BA47D707F5F12157A7837740184
:10095D00F27BA47D80803378377401F27B387D3053
:10096D007F5F12157A78377401F27B387D407F5F97
:10097D0012157A78377401F27B387D507F5F12152E
:10098D007A78377401F27B387D607F5F12157A7843
:10099D0002E218F27821E27003020B46D2972097FB
:1009AD0003020B46E4F27801E2FF121F3D7800745A
:1009BD0001F2020B467801E264066003020A9D789B
:1009CD002BF2782BE2FFC3940774809480500D7442
:1009DD00242FF8E4F2782BE204F280E6781AE2751F
:1009ED00F00A84C454F0FFE275F00A84E5F04F7804
:1009FD002AF21218A7EF047829F27806E278196026
:100A0D000CE275F00A84C454F044808008E275F05D
:100A1D000A84C454F0FFE275F00A84E5F04F78289B
:100A2D00F27817E275F00A84C454F0FFE275F00A0B
:100A3D0084E5F04F7827F2781DE275F00A84C454EE
:100A4D00F0FFE275F00A84E5F04F7826F2781EE2A9
:100A5D0075F00A84C454F0FFE275F00A84E5F04F96
:100A6D007825F2781BE275F00A84C454F0FFE27524
:100A7D00F00A84E5F04F7824F21221B1E47800F207
:100A8D0008F278047402F2E47802F2782304F22278
:100A9D007801E214604B14606514606B146070147F
:100AAD006075240570777802E2C394647480948035
:100ABD00400DE2249C781AF278067401F2800A78CF
:100ACD0002E2781AF2E47806F27819E2FF121EC2F9
:100ADD00782DEFF2E2FF7817E2D39F4040EFF280DE
:100AED003C7802E2047819F2E2FF121EC2782DEF73
:100AFD00F2E2FF7817E2D39F4023EFF2801F7802D6
:100B0D00E2047817F280167802E2781DF2800E78F2
:100B1D0002E2781EF280067802E2781BF27821E27A
:100B2D006017D297309712E4F278047406F27801C8
:100B3D00E208F28000E47800F27801E2700D18E22C
:100B4D0064017007782C7404F28005782C7401F21E
:100B5D00E4782BF2782CE2FF18E2C39F505A780606
:100B6D00E2783760197401F27B367D307F321215D1
:100B7D007A78377401F27B367D407F3080177401AF
:100B8D00F27B367D307F3112157A78377401F27B26
:100B9D00367D407F3912157A781AE275F00A842471
:100BAD0030FF78377401F27B367D5012157A1215AD
:100BBD0065782BE204F2809C78377401F27B367DE8
:100BCD00707F2D12157A7801E26401700D18E264C0
:100BDD00017007782C7404F28005782C7401F2E40E
:100BED00782BF2782CE2FF18E2C39F50357819E28A
:100BFD0075F00A842430FF78377401F27B367D80DE
:100C0D0012157A7819E275F00A84E5F02430FF7830
:100C1D00377401F27B367D9012157A782BE204F24F
:100C2D0080C178377401F27B367DA07F2D12157A45
:100C3D007801E26402700D18E264017007782C747B
:100C4D0004F28005782C7401F2E4782BF2782CE212
:100C5D00FF18E2C39F50357817E275F00A842430EF
:100C6D00FF78377401F27B367DB012157A7817E272
:100C7D0075F00A84E5F02430FF78377401F27B3685
:100C8D007DC012157A782BE204F280C17801E264FE
:100C9D0003700D18E264017007782C7404F280055E
:100CAD00782C7401F2E4782BF2782CE2FF18E2C371
:100CBD009F5035781DE275F00A842430FF78377423
:100CCD0001F27B6C7D4012157A781DE275F00A8475
:100CDD00E5F02430FF78377401F27B6C7D501215EE
:100CED007A782BE204F280C178377401F27B6C7D47
:100CFD00607F3A12157A7801E26404700D18E2648F
:100D0D00017007782C7404F28005782C7401F2E4DC
:100D1D00782BF2782CE2FF18E2C39F5035781EE253
:100D2D0075F00A842430FF78377401F27B6C7D7086
:100D3D0012157A781EE275F00A84E5F02430FF78FA
:100D4D00377401F27B6C7D8012157A782BE204F2F8
:100D5D0080C178377401F27B6C7D907F3A12157AE1
:100D6D007801E26405700D18E264017007782C7447
:100D7D0004F28005782C7401F2E4782BF2782CE2E1
:100D8D00FF18E2C39F5035781BE275F00A842430BA
:100D9D00FF78377401F27B6C7DA012157A781BE217
:100DAD0075F00A84E5F02430FF78377401F27B6C1E
:100DBD007DB012157A782BE204F280C17837740178
:100DCD00F27BA27D707F4F12157A78377401F27B1A
:080DDD00A27D807F4B12157A04
:010DE50022EB
:10212C007821E26014D29730970FE4F2782304F20E
:10213C00780404F2780214F222EF14600A14600A94
:10214C0014600A240380090220520220E402229E19
:04215C0012169522A0
:10209C00782BEFF27818F27821E26014D29730970F
:1020AC000FE4F2782304F2780404F2E47802F222CA
:1020BC007815E264017004F2121C8A782BE2146029
:1020CC000A14600A14600A240380090213EE021A2F
:0820DC0066020DE61210572206
:101C8A00D2A6122160C2A67824E2FF5470C4540F6F
:101C9A0075F00AA4FEEF540F2E781BF27825E2FFA6
:101CAA005470C4540F75F00AA4FEEF540F2E781E18
:101CBA00F27826E2FF5430C4540F75F00AA4FEEFFE
:101CCA00540F2E781DF27827E2FF5430C4540F7552
:101CDA00F00AA4FEEF540F2E7817F27828E2FF5488
:101CEA0010C4540F75F00AA4FEEF540F2E7819F29F
:101CFA00EF30E70778067401F28004E47806F27898
:101D0A0029E2781CF2782AE2FF54F0C4540F75F0E5
:0A1D1A000AA4FEEF540F2E781AF20F
:011D2400229C
:101057007806E2783760197401F27B367D307F328B
:1010670012157A78377401F27B367D407F3080170E
:101077007401F27B367D307F3112157A783774012F
:10108700F27B367D407F3912157A781AE275F00ABD
:10109700842430FF78377401F27B367D5012157A3D
:1010A70012156578377401F27B367D707F2D121526
:1010B7007A7819E275F00A842430FF78377401F2E0
:1010C7007B367D8012157A7819E275F00A84E5F08F
:1010D7002430FF78377401F27B367D9012157A78C9
:1010E700377401F27B367DA07F2D12157A7817E2CF
:1010F70075F00A842430FF78377401F27B367DB0AF
:1011070012157A7817E275F00A84E5F02430FF7833
:10111700377401F27B367DC012157A781DE275F0BF
:101127000A842430FF78377402F27B6CE4FD1215D1
:101137007A781DE275F00A84E5F02430FF78377479
:1011470002F27B6C7D2012157A78407402F2081443
:10115700F20874FFF27B027D767F50121E7B784087
:101167007402F20814F20874FFF27B027D8A7F5042
:10117700121E7B781EE275F00A842430FF783774DC
:1011870002F27B6C7D6012157A781EE275F00A8494
:10119700E5F02430FF78377402F27B6C7D801215FE
:1011A7007A78407402F20814F20874FFF27B027D29
:1011B700767FB0121E7B78407402F20814F208742E
:1011C700FFF27B027D8A7FB0121E7B781BE275F0EF
:1011D7000A842430FF78377402F27B6C7DC01215C5
:1011E7007A781BE275F00A84E5F02430FF783774CB
:1011F70002F27B6C7DE012157A781CE225E024056B
:10120700F8E2FE08E2AA06F97BFF1222CA781CE27E
:1012170025E02405F8E2FC08E2AA04F97BFFEF7554
:10122700F010A4FFE5F0C313EF13FFC374809FFD15
:0C123700783274B6F2087401F202200D47
:10229E00784074FEF2087401F20874FFF27BFE7D42
:0622AE007F7F7F021E7B12
:1017A300782CEFF208EDF208EBF230E01A782CE235
:1017B3002404FF08E224ECFDE47840F208F2087404
:1017C3001EF27B10121E7B782EE2C313F230E01C54
:1017D300782CE2240CFF08E224F6FD7840740FF223
:1017E300E408F208741EF27B03121E7B782EE2C318
:1017F30013F230E01C782CE22408FF08E2240AFDEF
:101803007840740FF2E408F208741EF27B03121E90
:101813007B782EE2C313F230E01A782CE224FCFF2B
:1018230008E22414FDE47840F208F208741EF27B07
:1018330010121E7B782EE2C313F230E01C782CE2E8
:1018430024F4FF08E2240AFD7840740FF2E408F25E
:1018530008741EF27B03121E7B782EE2C313F23050
:10186300E01C782CE224F8FF08E224F6FD784074AB
:101873000FF2E408F208741EF27B03121E7B782E2B
:10188300E2C313F230E016782CE2FF08E2FDE478BD
:1018930040F208F208741EF27B10121E7B782EE2CF
:0418A300C313F22257
:101A6600781DE275F00A8490086393FB7D807F20E1
:101A76001217A3781DE275F00A84E5F090086393C7
:101A8600FB7D807F401217A378407402F20814F29F
:101A96000874FFF27B027D767F5A121E7B784074B3
:101AA60002F20814F20874FFF27B027D8A7F561256
:101AB6001E7B781EE275F00A8490086393FB7D8096
:101AC6007F701217A3781EE275F00A84E5F090087D
:101AD6006393FB7D807F901217A378407402F2080F
:101AE60014F20874FFF27B027D767FAA121E7B78C1
:101AF600407402F20814F20874FFF27B027D8A7FBA
:101B0600A6121E7B781BE275F00A8490086393FB8D
:101B16007D807FC01217A3781BE275F00A84E5F07A
:0C1B260090086393FB7D807FE00217A312
:10156500781AE275F00A84E5F02430FF78377401C3
:05157500F27B367D60F1
:07157A007835EDF208EBF2F9
:1015810074E02F25E0FD90009D9375F006A4FF788F
:1015910038E5F0F208EFF20DED93FF08E4F208EF01
:1015A100F2E408F2783CE2FFD318E29F18E29400DB
:1015B1005003021694783808E2FF2401F218E2FE83
:1015C1003400F2745D2FF58274013EF583E493FFDC
:1015D10018E2FEEF8EF0A4FF7835E22FFF7838088D
:1015E100E2FD2401F218E2FC3400F2745D2DF58273
:1015F10074013CF583E4938EF0A4FE7836E22EFD6F
:10160100783808E2FB2401F218E2FA3400F2745D42
:101611002BF58274013AF583E493FE18E2FCEE8C1B
:10162100F0A4FB0808E2F5822401F218E2F5833404
:1016310000F2745D2582F58274013583F583E493AC
:101641008CF0A47840F2783808E2F5822401F2188F
:10165100E2F5833400F2745D2582F58274013583ED
:10166100F583E4937841F2783808E2F5822401F2B7
:1016710018E2F5833400F2745D2582F58274013538
:1016810083F583E4937842F2121E7B783CE204F204
:031691000215A59A
:011694002233
:1020E400E4782BF208F208F2782DE2FFC3946074CE
:1020F4008094805032EF2420FF782BE2C454F0FD0A
:1021040008E275F01EA42432FB78377401F212152C
:102114007A782BE204F2E264107005F208E204F229
:07212400782DE204F280C1F6
:01212B002291
:0B2002007BFF7832F2087401F27D20B1
:10200D00782EEBF208EAF208E9F208EDF2782EE20A
:10201D00FB08E2FA08E2F9121B32FF602708E2FD25
:10202D0008E2FB08E27837F212157A7830E22401E3
:10203D00F218E23400F27833E2C454F0FF7831E262
:05204D002FF280C92202
:0B1243007830ECF208EDF2AB07AA06D1
:10124E007C007D5A121BB27832ECF208EDF2AE023F
:10125E00AF037C007D5A121BB2EE7063EF14601860
:10126E00146027146037240370557834E4F20804B0
:10127E00F274FF08F208801E7834E4F20804F208D3
:10128E00E4F20804F2783C04802274FF7834F20809
:10129E00F208E4F20804F2E4783CF2802F74FF784E
:1012AE0034F208F208F208F2783C7402F27832E274
:1012BE00FE08E2FFC3745A9FF2E49E18F2800D7886
:1012CE0034E4F20804F208E4F20804F27832E2FEA2
:1012DE0008E27802C333CE33CED8F924F7F5827400
:1012EE00063EF583E493FA740193FB7834E2FE082C
:1012FE00E2FF7C007D3C121B4BAD03AC02121B4B7C
:10130E007C007D64121BB2EF24807839F2E43E1823
:10131E00F27832E2FE08E27802C333CE33CED8F949
:10132E0024F9F58274063EF583E493FA740193FB77
:10133E007836E2FE08E2FF7C007D3C121B4BAD03CB
:10134E00AC02121B4B7C007D64121BB2EF24807822
:10135E003BF2E43E18F27832E2FE08E27802C33342
:10136E00CE33CED8F924F7F58274063EF583E49396
:10137E00FC740193FD7830E2FE08E2FF121B4B7CF9
:10138E00007D64121BB2AB07AA067832E2FE08E2B9
:10139E007802C333CE33CED8F924F9F58274063EE3
:1013AE00F583E493FC740193FD7830E2FE08E2FFCE
:1013BE00121B4B7C007D64121BB28F828E83783899
:1013CE0008E2FF0808E2FD7840E582F2783CE27818
:1013DE0041F208741EF2121E7B7F017E00022287EC
:1013EE007840740AF2087401F20874FFF27B0A7DE9
:1013FE00807F80121E7B78377401F2E4FB7D727F52
:10140E003112157A78377401F2E4FB7D827F321245
:10141E00157A78377401F27B767DF37F3312157A65
:10142E0078377401F27BEB7D7A7F3612157A783736
:10143E007401F27B76E4FD7F3912157A90076FE422
:10144E0093FE740193FF7C007D78121B4B7D64121A
:10145E001BB2782CEEF208EFF2900771121E45784F
:10146E002C08E22480FF0808E22480121E6B782CE0
:10147E0008E2FFC374809FFF0808E22480121E6BEF
:10148E00782C08E2FFC374809FFF0808E2FEC37445
:10149E00809E121E6B9007E7E493FE740193FF7C0F
:1014AE00007D78121B4B7D64121BB2782CEEF20875
:1014BE00EFF29007E9121E45782C08E22480FF080F
:1014CE0008E22480121E6B782C08E2FFC374809F02
:1014DE00FF0808E22480121E6B782C08E2FFC3740A
:1014EE00809FFF0808E2FEC374809E121E6B781B5D
:1014FE00E275F006A4FFAEF07D647C001212437814
:10150E001BE275F006A4FFAEF07C007D3C121BB210
:10151E00AC06AD07781EE275F006A42DFFE5F03C93
:10152E00FE7D507C00121243781EE275F006A4FF79
:10153E00AEF07C007D0C121BB2AC06AD07781DE23E
:10154E0075F00C84E5F075F01EA42DFFE5F03CFE61
:07155E007D3C7C00021243FA
:100DE6007840740AF2087401F20874FFF27B0A7DF7
:100DF600807F80121E7B78407414F2087402F20819
:100E0600741EF27B0C7D0A7F78121E7B7840741468
:100E1600F2E408F208741EF27B0C7D0A7F78121E3B
:100E26007B78407414F2E408F208741EF2E4FB7D49
:100E36000A7F85121E7B78407414F2E408F2087467
:100E46001EF2E4FB7D0A7F8B121E7B78407414F23F
:100E5600E408F208741EF2E4FB7D807FF3121E7B29
:100E660078407414F2E408F208741EF2E4FB7D8004
:100E76007FF9121E7B78407414F2E408F208741E9F
:100E8600F2E4FB7D807FFF121E7B78407414F2082B
:100E96007402F208741EF27B067DF57F75121E7BC6
:100EA60078407414F2E408F208741EF27B067DF5AD
:100EB6007F7B121E7B78407414F2E408F208741EDD
:100EC600F2E4FB7DF57F88121E7B78407414F2E411
:100ED60008F208741EF2E4FB7D807F06121E7B7802
:100EE600407414F2E408F208741EF27B0C7D807FD5
:100EF60013121E7B78407414F2087402F208741EF2
:100F0600F27B0C7D807F13121E7B90076FE493FEAD
:100F1600740193FF7C007D78121B4B7D64121BB21B
:100F2600782CEEF208EFF2FB900771E493FE740161
:100F360093FF7C007D78121B4B7D64121BB2782ECA
:100F4600121E5B782C08E22480FF0808E224801237
:100F56001E6B782C08E2FFC374809FFF0808E2240A
:100F660080121E6B782C08E2FFC374809FFF08086E
:100F7600E2FEC374809E121E6B9007E7E493FE7434
:100F86000193FF7C007D78121B4B7D64121BB278A7
:100F96002CEEF208EFF2FB9007E9E493FE7401935E
:100FA600FF7C007D78121B4B7D64121BB2782E12DB
:100FB6001E5B782C08E22480FF0808E22480121EBB
:100FC6006B782C08E2FFC374809FFF0808E2248038
:100FD600121E6B782C08E2FFC374809FFF0808E29C
:100FE600FEC374809E121E6B781BE275F006A4FF8A
:100FF600AEF07D647C00121243781BE275F006A405
:10100600FFAEF07C007D3C121BB2AC06AD07781E2D
:10101600E275F006A42DFFE5F03CFE7D507C001243
:101026001243781EE275F006A4FFAEF07C007D0C3C
:10103600121BB2AC06AD07781DE275F00C84E5F024
:1010460075F01EA42DFFE5F03CFE7D3C7C000212EF
:011056004356
:10169500784074FEF2087401F2087455F27BFE7D01
:1016A5007F7F7F121E7B784074FEF2E408F2087497
:1016B5001EF2E4FB7D7FFF121E7B784074FEF2E490
:1016C50008F208741EF2E4FB7D7F7F7F121E7B7893
:1016D5004074FEF2E408F208741EF2E4FB7D7F7F9D
:1016E500FE121E7BE47840F208F208741EF27BFEBF
:1016F500E4FD7F7F121E7BE47840F208F208741E39
:10170500F27BFE7D7F7F7F121E7BE47840F208F23C
:1017150008741EF27BFE7DFE7F7F121E7B7840746F
:10172500FEF2E408F208741EF27BFE7D7F7F7F12D5
:101735001E7B784074FEF2087402F208741EF27B78
:10174500FE7D7F7F7F121E7B784074FEF2E408F2F7
:1017550008740CF27BFE7D257F25121E7B78407474
:10176500FEF2087402F208740CF27BFE7D257FD927
:10177500121E7B784074FEF2E408F208740CF27BCA
:10178500FE7DD97FD9121E7B784074FEF208740263
:0E179500F208740CF27BFE7DD97F25021E7BCC
:10205200E4782BF2782BE2FFC3940B7480948050C7
:1020620038EF75F019A4FF784074FFF2E408F20823
:1020720074FFF2E4FB7D7F121E7B782BE275F01970
:10208200A4FDE47840F208F20874FFF2FB7F7F12AD
:092092001E7B782BE204F280BBF6
:01209B002222
:101E4500FBE493FE740193FF7C007D78121B4B7DB0
:101E550064121BB2782EEEF208EFF2FDAF03EF2409
:101E650080FFC374809DFD78407406F2087401F20A
:061E75000874FFF27B0679
:101E7B00783EEDF208EBF2AD077F02121FAF783E12
:101E8B00E2FD7F03121FAF783FE2FDE4FF121FAFAD
:101E9B007840E2FD7F01121FAFD2A6C2A300D2A3EE
:101EAB007841E2FF1392A4EF5402C31324FF92A5CF
:071EBB0008E2F580C2A62237
:07000300D2A2D2A1D2A32278
:101FAF007E08EF440CFFC2A2E4FCECC394047480DF
:101FBF0094805015C2A1EF5E6004D2A08002C2A02F
:101FCF00EEC313FED2A10C80E17E80AF05E4FCECE2
:101FDF00C39408748094805015C2A1EF5E6004D240
:101FEF00A08002C2A0EEC313FED2A10C80E1D2A248
:021FFF00D2A06E
:0120010022BC
:10228700E4FDEDC39FE49E500D00007C027BEEDB76
:06229700FEDCFC0D80ECF2
:01229D00221E
:10223700E4FDFCC3ED9FEC9E5011000079147B7008
:0B224700DBFED9FC0DBD00010C80E89F
:012252002269
:03000B0002199542
:10199500C0E0C0D075D000C000C006C007758A7D04
:1019A500758CF9B2907821E2701AD29720971108B8
:1019B500E204F2E26432700C1804F208E4F28004E6
:1019C5007822E4F2D296D295A296E433FF781FE20C
:1019D500B5070AA295E433FF08E26F6079A296E4A1
:1019E50033781FF2A295E43308F27803E225E0F29A
:1019F500E2FFA296E433FEEF4EF27805E225E0F22F
:101A0500E2FFA295E433FEEF4EF27803E2540FF2C3
:101A15007805E2540FF27803E2640970197805E25B
:101A2500640370127802E204F27804E2FF7802E2BD
:101A3500D39F4002E4F27803E2640370197805E26B
:101A4500640970127802E270087804E27802F28084
:101A5500057802E214F2D007D006D000D0D0D0E04D
:011A6500324E
:03001B0002221AA4
:10221A00C0E0C0D075D000C000758BFF758D7FB24D
:0D222A009178157401F2D000D0D0D0E032D0
:07231D0000010204050306A4
:0522B4001222B9D2B6B0
:1022B9000000000000000000000000000000000015
:0122C90022F2
:07231600D290D2B7D2B6222B
:0F230700D2B7D2B61222B9C2B71222B9C2B622C9
:0A000E00C2B71222B4D2B70222B921
:082253001223077FD01221FACB
:10225B00D2B71222B4A2B792001222B9C2B612227E
:03226B00B9A20015
:01226E00224D
:1021FA00E4FEEEC39408748094805013EF3392B7D0
:0F220A001222B4C2B61222B9EF25E0FF0E80E314
:0122190022A2
:10218A00E4FEEEC3940874809480501AD2B61222E8
:10219A00B9EF25E0FF1222B930B7034401FFC2B6F6
:0621AA001222B90E80DCD8
:0121B000220C
:10226F00AC07122253AF041221FA12225BAF0512F0
:08227F0021FA12225B02000E9D
:0221D600AD0753
:1021D800122253AF051221FA12225B12000E1223AB
:1021E800077FD11221FA12225B12218A1222B90228
:0221F800000ED7
:102160007BFF7A23791DE4FCECC394077480948090
:102170005017121B32FF1221D674242CF8EFF27480
:092180000129F9E43AFA0C80DFB0
:012189002233
:1021B100E4FBEBC39407748094805012EB90231DD1
:1021C10093FF74242BF8E2FD12226F0B80E47D0C47
:0521D1007F0E02226FE9
:1022F300D290D2B7D2B67D0C7F0E12226F7D887F2B
:042303000F02226F34
:03000000021DB925
:0C1DB900787FE4F6D8FD758120021E0042
:101B3200BB010689828A83E0225002E722BBFE02B1
:091B4200E32289828A83E49322E4
:101B4B00EF8DF0A4A8F0CF8CF0A428CE8DF0A42EAE
:021B5B00FE2268
:101B5D00BC000BBE0029EF8DF084FFADF022E4CC6C
:101B6D00F875F008EF2FFFEE33FEEC33FCEE9DEC35
:101B7D00984005FCEE9DFE0FD5F0E9E4CEFD22ED7B
:101B8D00F8F5F0EE8420D21CFEADF075F008EF2FC5
:101B9D00FFED33FD4007985006D5F0F222C398FDB6
:051BAD000FD5F0EA2253
:101BB200C2D5EC30E709B2D5E4C39DFDE49CFCEE4E
:101BC20030E715B2D5E4C39FFFE49EFE121B5DC34E
:101BD200E49DFDE49CFC8003121B5D30D507C3E449
:061BE2009FFFE49EFE22BD
:1022CA00E4FFFE121B32600C0FEF70010E09E97079
:0522DA00F20A80EF2272
:101DC500021D25E493A3F8E493A34003F68001F2F2
:101DD50008DFF48029E493A3F85407240CC8C3331F
:101DE500C4540F4420C8834004F456800146F6DFEE
:101DF500E4800B01020408102040809022DFE47E7D
:101E0500019360BCA3FF543F30E509541FFEE493E2
:101E1500A360010ECF54C025E060A840B8E493A3A9
:101E2500FAE493A3F8E493A3C8C582C8CAC583CAD4
:101E3500F0A3C8C582C8CAC583CADFE9DEE780BE8C
:0122F20000EB
:00000001FF
